:10035A00061C68656C6C6F00140800000000000041
:0E036A00000000000000000000000000000085
:100171001203DB1203AFC2927B007A00791C7D056A
:100181007C00E4FF1201CA7F2C7E011204027B0075
:100191007A0079087D057C00E4FF12008F75260046
:0F01A1007527007528087B057D01E4FF120278A1
:1001B0007522FF12021B8F22E522F460F3E5222450
:0801C00030FBE4FDFF12042FE7
:0201C80080E6CF
:02024A008F2DF6
:10024C001204397FA01203791203EFAF2D12037938
:10025C001203EF1204397FA11203791203EF120279
:0B026C00C78F2E1204241204427F00F2
:010277002264
:100338008F2F8D301204397FA01203791203EFAF8B
:100348002F1203791203EFAF301203791203EF0271
:0203580004425D
:0C008F008F238C248D258B268A2789283E
:10009B00E4F5291204397FA01203791203EFAF2381
:1000AB001203791203EF1204397FA11203791203A1
:1000BB00EFE52524FFFFE52434FFFEC3E5299FEE82
:1000CB006480F8748098501A1202C7AB26AA27A92D
:1000DB0028852982758300EF12014F12044B0529E5
:1000EB0080CF1202C7AB26AA27A928852982758340
:0D00FB0000EF12014F120424120442AF293D
:0101080022D4
:0C01CA008F238C248D258B268A27892802
:1001D600E4F5291204397FA01203791203EFAF2345
:1001E6001203791203EFE5251525AE2470021524B6
:1001F6004E601CAB26AA27A928AF2905298F827530
:100206008300120122FF1203791203EFEF70D71257
:040216000442AF29C6
:01021A0022C1
:10040200E4FDFCC3ED9FEC9E50070DBD00010C8086
:01041200F2F7
:0104130022C6
:09043900D291D29000C291002280
:09044200C291D29000D291002277
:09044B00C29100D29000C290227F
:0B042400C290D29100D29000C2902242
:1003EF00E4FFC290D291D2900030910280027F013F
:0203FF00C290AA
:0104010022D8
:100379007E08AD07C29000ED30E704D2918002C239
:0C03890091D290EF25E0FDFFDEE8C2906D
:010395002245
:1002C7007F08E4FEC290D29100D29000309110EFE7
:1002D70014FD7401A805088002C333D8FC4206DF69
:0502E700E3C290AF0628
:0102EC0022EF
:1002A000E4FF75A0F0AEA0EE2450601024E06010D2
:1002B00024F060102470700E7F01800A7F02800697
:0602C0007F0380027F04B1
:0102C6002215
:1002ED00E4FF75A00FAEA0EE24F5600F24FE600FA5
:1002FD001460102407700E7F01800A7F0280067F34
:05030D000380027F04E3
:0103120022C8
:10021B007523FF1202A08F24E52460207FC87E0087
:10022B001204021202EDEF600DE5241425E025E027
:0E023B00FEEF142EF5231202EDEF70FAAF2342
:010249002292
:1003DB007F3812039F7F0C12039F7F0612039F7FB0
:0403EB000102039F69
:1003C6007580FFC297D2968005E58030E706C29514
:0503D600D29580F52224
:09039600EF75F040A424802DFF56
:10039F001203C6C295C297C296D2958F80C295227C
:100414001203C6C295D297C296D2958F80C29522F6
:02027800AE03D3
:10027A00120396E4FDEDC39E501BAB26AA27A928BC
:10028A00120109FF12041474012528F528E4352700
:05029A00F5270D80E0D6
:01029F00223C
:0A042F00AC03120396AF040204149C
:1003AF00759850E589540F4420F589E4F587758ACF
:0703BF00FD758DFDD28E22B9
:080454008F993099FDC2992235
:100313008B2A8A2B892CAB2AAA2BA92C12010960C0
:1003230013052CE52C7002052B14F9120109FF1299
:05033300045480E222E9
:08045C003098FDC298AF99220F
:03000000020003F8
:0C000300787FE4F6D8FD75813002004AD9
:10010900BB010689828A83E0225002E722BBFE02F4
:09011900E32289828A83E4932227
:10012200BB010CE58229F582E5833AF583E0225092
:1001320006E92582F8E622BBFE06E92582F8E222DC
:0D014200E58229F582E5833AF583E49322F6
:10014F00F8BB010DE58229F582E5833AF583E8F0E6
:10015F00225006E92582C8F622BBFE05E92582C892
:02016F00F2227A
:10000F00020171E493A3F8E493A34003F68001F295
:10001F0008DFF48029E493A3F85407240CC8C333F2
:10002F00C4540F4420C8834004F456800146F6DFC1
:10003F00E4800B010204081020408090035AE47EF4
:10004F00019360BCA3FF543F30E509541FFEE493B6
:10005F00A360010ECF54C025E060A840B8E493A37D
:10006F00FAE493A3F8E493A3C8C582C8CAC583CAA8
:10007F00F0A3C8C582C8CAC583CADFE9DEE780BE60
:010378000084
:00000001FF
