:10054300861468656C6C6F00940000000000000066
:0E05530000000000000000000000000000009A
:03028E00120598BE
:100291001200007840EEF208EFF218E2FA08E2FBF1
:1002A1007C007DFFFFAE0212006B7842EFF27C0012
:1002B1007DFFAF03AE0212006B7843EDF27F611256
:0202C1000655E0
:0202C30080CCED
:03000000020154A6
:0C015400787FE4F6D8FD75812002019B45
:0402C500781AEFF2C2
:1002C9001206327FA01205621205D8781AE2FF12CF
:1002D90005621205D81206327FA11205621205D8ED
:0F02E90012048F781BEFF212062712063B7F00DC
:0102F80022E3
:10041700781CEFF208EDF21206327FA01205621285
:1004270005D8781CE2FF1205621205D8781DE2FF95
:090437001205621205D802063B11
:1000C000781EEFF208ECF208EDF208EBF208EAF223
:0300D00008E9F24A
:1000D300E408F21206327FA01205621205D8781ED8
:1000E300E2FF1205621205D81206327FA1120562E1
:1000F3001205D87820E224FFFF18E234FFFE7824AB
:10010300E2C39FEE6480F8748098502212048F78C3
:1001130021E2FB08E2FA08E2F908E2F582758300BE
:10012300EF1200491206447824E204F280C5120457
:100133008F7821E2FB08E2FA08E2F908E2F582751A
:100143008300EF12004912062712063B7824E2FFD0
:010153002289
:1001E0007825EFF208ECF208EDF208EBF208EAF2FB
:0301F00008E9F229
:1001F300E408F21206327FA01205621205D87825B0
:10020300E2FF1205621205D8782608E2FF24FFF206
:1002130018E2FE34FFF2EF4E60217828E2FB08E299
:10022300FA08E2F908E2FF04F28F827583001200F4
:100233001CFF1205621205D8EF70CD12063B782B16
:02024300E2FFD8
:010245002296
:1005EB00E4FDFCC3ED9FEC9E50070DBD00010C809C
:0105FB00F20D
:0105FC0022DC
:0E060D00EF1FAC0670011E4C60030080F3224C
:1003C300E589540F4401F589758CFC758A1CD28C20
:1003D300EF1FAC0670011E4C600D208DF3758CFC75
:0A03E300758A1CD28D80F3C28C22B3
:09063200D291D29000C291002285
:09063B00C291D29000D29100227C
:09064400C29100D29000C2902284
:0B062700C290D29100D29000C290223D
:1005D800E4FFC290D291D2900030910280027F0154
:0205E800C290BF
:0105EA0022EE
:100562007E08AD07C29000ED30E704D2918002C24E
:0C05720091D290EF25E0FDFFDEE8C29082
:01057E00225A
:10048F007F08E4FEC290D29100D29000309110EF1D
:10049F0014FD7401A805088002C333D8FC4EFEDF9B
:0504AF00E3C290AF065E
:0104B4002225
:10046800E4FF75A0F0AEA0EE2450601024E0601008
:1004780024F060102470700E7F01800A7F028006CD
:060488007F0380027F04E7
:01048E00224B
:1004B500E4FF75A00FAEA0EE24F5600F24FE600FDB
:1004C5001460102407700E7F01800A7F0280067F6A
:0504D5000380027F041A
:0104DA0022FF
:10036100782C74FFF212046808EFF260217FC87ED6
:10037100001205EB1204B5EF600E782DE21425E0B2
:1003810025E0FEEF142E18F21204B5EF70FA782C66
:02039100E2FF89
:010393002247
:1005C4007F381205887F0C1205887F061205887F04
:0405D4000102058893
:1005AF007580FFC297D2968005E58030E706C29529
:0505BF00D29580F52239
:09057F00EF75F040A424802DFF6B
:100588001205AFC295C297C296D2958F80C29522A6
:1005FD001205AFC295D297C296D2958F80C2952221
:0203ED00AE035D
:1003EF0012057FE4FDEDC39E501D7831E2FB08E25C
:1003FF00FA08E2F9120003FF1205FDE22401F218D8
:07040F00E23400F20D80DE73
:0104160022C3
:08064D0012057FAF030205FD59
:10059800759850E589540F4420F589E4F587758BE3
:0705A800FD758DFDD28E22CE
:080655008F993099FDC2992232
:1002F9007834EBF208EAF208E9F27834E2FB08E232
:10030900FA08E2F9120003601A7834E2FB0808E2FD
:10031900F92401F218E2FA3400F2120003FF12067E
:040329005580D72202
:08065D003098FDC298AF99220C
:0C061B00C2947FE07E0112060DD29422F2
:10044000E47837F212061B7F147E0012060D20940A
:100450000778377401F28004E47837F27FCC7E01AC
:0704600012060D7837E2FFE0
:010467002272
:10052300C29420000A7F3C7E0012060DD294227FE3
:100533000A7E0012060DD2947F327E0012060D222F
:10039400E47838F2C2947F02FE12060DD2947F05EF
:1003A4007E0012060D209406E47838F28005783831
:0E03B4007401F27F357E0012060D7838E2FFEC
:0103C2002218
:0404DB007839EFF28B
:1004DF00E408F2F27839E2139201A20192001205B8
:1004EF00237839E2C313F208E204F2E2C39408401E
:0104FF00E319
:0105000022D8
:10032D00E4783BF208F2F2783BE2FFC00712039447
:10033D00783CE2FEEFA806088002C333D8FCFED05D
:10034D00E05E783BF208E204F2E2C3940840D8780C
:03035D003BE2FF81
:01036000227A
:10050100783DEFF21204407FCC1200007F4E1200C2
:1005110000E4FF1200007FFF120000783DE2FF02BD
:020521000000D8
:10024600E4FFFE1204407FCC1200007F441200003F
:100256007F207E031203C31204407FCC1200007F6E
:10026600BE12000012032D783EEFF212032D783FE6
:10027600EFF212061B783FE275F0FFA4FF18E27C4E
:07028600002FFFEC35F0FE34
:01028D00224E
:1001600002028EE493A3F8E493A34003F68001F225
:1001700008DFF48029E493A3F85407240CC8C333A0
:10018000C4540F4420C8834004F456800146F6DF6F
:10019000E4800B0102040810204080900543E47EB7
:1001A000019360BCA3FF543F30E509541FFEE49364
:1001B000A360010ECF54C025E060A840B8E493A32B
:1001C000FAE493A3F8E493A3C8C582C8CAC583CA56
:1001D000F0A3C8C582C8CAC583CADFE9DEE780BE0E
:010561000099
:10000300BB010689828A83E0225002E722BBFE02FB
:09001300E32289828A83E493222E
:10001C00BB010CE58229F582E5833AF583E0225099
:10002C0006E92582F8E622BBFE06E92582F8E222E3
:0D003C00E58229F582E5833AF583E49322FD
:10004900F8BB010DE58229F582E5833AF583E8F0ED
:10005900225006E92582C8F622BBFE05E92582C899
:02006900F22281
:10006B00BC000BBE0029EF8DF084FFADF022E4CC79
:10007B00F875F008EF2FFFEE33FEEC33FCEE9DEC42
:10008B00984005FCEE9DFE0FD5F0E9E4CEFD22ED88
:10009B00F8F5F0EE8420D21CFEADF075F008EF2FD2
:1000AB00FFED33FD4007985006D5F0F222C398FDC3
:0500BB000FD5F0EA2260
:00000001FF
